:020000040001F9
:10B0000088620020D5B00100EFB00100F1B001006E
:10B010000000000000000000000000000000000030
:10B02000000000000000000000000000F3B001007C
:10B030000000000000000000F5B00100F7B00100C2
:10B04000C5C20100F9B00100A9C40100F9B00100B6
:10B05000F9B001000000000031C10100F9B00100A9
:10B06000F9B00100F9B00100F9B00100F9B0010038
:10B07000F9B00100F9B00100F9B00100F9B0010028
:10B08000F9B0010019C30100F9B00100F9B00100E5
:10B09000E1C30100F9B00100E9C30100F9B001000A
:10B0A000F9B00100F9B0010000000000000000004C
:10B0B0000000000000000000000000000000000090
:10B0C0000348854600F0C8F800480047A908020078
:10B0D000886200200321094802680A430260084888
:10B0E00002680A4302600748804707480047FEE7B6
:10B0F000FEE7FEE7FEE7FEE7FEE70000240500406E
:10B100005405004009C40100C1B0010030B50B4630
:10B11000014600202022012409E00D46D5409D4231
:10B1200005D31D469540491B2546954040191546B7
:10B13000521E002DF1DC30BD10B5431A934209D2E6
:10B140008318881803E0401E01785B1E1970521E98
:10B15000F9D210BD03460B439B0703D009E008C991
:10B16000121F08C0042AFAD203E00B780370401CB7
:10B17000491C521EF9D210BDD2B201E00270401C2F
:10B18000491EFBD270470022F6E710B513460A4667
:10B1900004461946FFF7F0FF204610BD421C017817
:10B1A000401C0029FBD1801A704730B504460020AE
:10B1B000034600E05B1C934203D2E05CCD5C401B85
:10B1C000F8D030BD03460A780270401C491C002AA2
:10B1D000F9D118467047F0B51FB40646002082B07A
:10B1E00005464024019100901BE0019922460F463C
:10B1F000304600F043F8049A059B801A994110D319
:10B2000010461946224600F016F8361A8F4101976B
:10B21000224601200021009F00F00DF838184D4112
:10B2200000902046641E0028DFDC019B0098294620
:10B23000324607B0F0BD10B5202A04DB0146203AA3
:10B240009140002010BD914020239C1A0346E3400A
:10B250001943904010BD0000064C0125064E05E044
:10B26000E36807CC2B430C3C98471034B442F7D327
:10B27000FFF72AFFF05A0200105B020010B5202AE7
:10B2800004DB0846203AD040002110BD0B46D340D5
:10B29000D0402024A21A91400843194610BD70B531
:10B2A0008C180578401C6B075B0F01D10378401C9C
:10B2B0002A1106D10278401C03E006780E70401C6B
:10B2C000491C5B1EF9D12B0705D40023521E0DD457
:10B2D0000B70491CFAE70378401CCB1A921C03E060
:10B2E0001D780D70491C5B1C521EF9D5A142D8D3A4
:10B2F000002070BD70B5150094B004000CAA2B009E
:10B30000080004A90291039200F0AAFA43425841AE
:10B3100029006B88019501331BB2009302AE8000B7
:10B32000002382594431200000F00AF829782000D7
:10B33000490049B200F0DBFB4342584114B070BDF4
:10B34000F0B5B3B01D0038AB0027DF5F0023399E96
:10B35000089003910992F3561AA81A00029300F07C
:10B3600024FD029B00249B000493049A039B9446B3
:10B370006344029A19002AA8059300F016FD345779
:10B38000002D05D0220029000AA800F00EFD05E0DE
:10B3900021000AA800F078FB01230A9322001AA9D1
:10B3A00012A800F002FD22002AA922A800F0FDFC4C
:10B3B00033000AAA2AA91AA800F080F93300A4339E
:10B3C0001C680AAA33002AA91AA8A04733000AAAAF
:10B3D00022A912A800F072F9BB1E1FB2002F23DDB4
:10B3E0003900099800F072FD0123444244411D1BBD
:10B3F0006D0112AB5B19069322AB5D19640112ABB0
:10B400001B19079322AB1C192300079A29000698E1
:10B41000009600F0C8F82B000096069A21000798C5
:10B4200000F05DF87B1ED8E701273C00099B1B68F4
:10B4300000969C433F1B12AB7F01DD1922ABDF1945
:10B44000640112AB1B19069322AB1C192300069A48
:10B450003900280000F0A7F8029B12AA00931AA94D
:10B46000331D0AA800F014FC0AA933003A000800B2
:10B4700000F0EEFB0AA93300039A080000F0E8FB95
:10B480000AA9029B321D080000F058FB0AA93300EC
:10B49000059A080000F0DCFB0AA933002A00080026
:10B4A00000F0D6FB3B002A0021000698009600F031
:10B4B00016F833000AAA22A912A800F0FFF8029A8F
:10B4C00012A9089800F071FC049A089B9446634402
:10B4D0001800029A22A900F068FC33B0F0BDF0B564
:10B4E000002514001E008DB0129B029003915D5741
:10B4F0001F1D3B000200210004A8009500F0C8FBBE
:10B5000004A9129A080000F0B3FB0299129B04AA46
:10B51000080000F09DFB129B04AA2100200000F00F
:10B5200097FB3B00039A31003000009500F0B0FB20
:10B53000129A310004A800F09BFB04A93B00029A78
:10B540000800009500F0A4FB04A93B0022000800BD
:10B55000009500F09DFB3B00029A21002000009521
:10B5600000F096FB0399129B2200080000F070FB8C
:10B570003B0004AA02992000009500F089FB129B71
:10B5800022003100300000F063FB3B00039A3100E1
:10B590003000009500F07CFB2A0004A9200000F098
:10B5A00004FC0DB0F0BDF0B50024170006009DB0FE
:10B5B0000293229B03911C571D1D2B000200390092
:10B5C00004A8009400F064FB04A9229A080000F08B
:10B5D0004FFB229B04AA3100300000F039FB229B74
:10B5E00004AA3900380000F033FB2B00039A0299BB
:10B5F00004A8009400F089FA02992B00039A08002D
:10B60000009400F045FB2B00320039000CA8009498
:10B6100000F03EFB0399229B0CAA080000F018FBE7
:10B620002B003A0031000CA8009400F06EFA229A28
:10B630000299380000F01CFB2B000CAA39003800DE
:10B64000009400F025FB2B003A00310014A8009470
:10B6500000F01EFB0299229B14AA080000F0F8FAE1
:10B6600002992B00039A0800009400F011FB229A23
:10B6700004A914A800F0FCFA14A92B000CAA0800D5
:10B68000009400F005FB2B00320014A90CA80094D4
:10B6900000F0FEFA0CA9229B04AA080000F0D8FAD8
:10B6A000039A2B000CA91000009400F0F1FA22007C
:10B6B00014A9300000F079FB1DB0F0BDF0B5160004
:10B6C0001C0007000D0089B01A003100684600F028
:10B6D000CFFA23006A463900380000F0B9FA230097
:10B6E00032006946684600F0B3FA23006A46290032
:10B6F000280000F0ADFA09B0F0BD002A03D0013AED
:10B700008B5C8354F9E77047F0B5002697B004913D
:10B7100003939E57050031001000140000F0E7F974
:10B72000002800D097E0039A049906A800F0A0FA38
:10B73000039B06AA29000EA800F08AFA06A90800B1
:10B74000039A00F095FA0499039B0800220000F088
:10B750007FFA039A2100200000F08AFA039B22005E
:10B760001F1D3B0029002800009600F0CEF93B0089
:10B77000220021002000009600F0C7F93B002200C3
:10B7800029002000009600F083FA039B2200290084
:10B79000280000F05DFA3B002A00290020000096F6
:10B7A00000F0B3F93B00009622002900280000F0C9
:10B7B000ACF92B68DB0714D533003A0029002800C8
:10B7C00000F036F931000590280000F0DFFA234B35
:10B7D000059AF3189B00EB181968D2070A431A6000
:10B7E00003E03100280000F0D1FA039A290020007C
:10B7F00000F03EFA3B000EAA21002000009600F067
:10B8000047FA3B000EAA21002000009600F040FA03
:10B810000EA908003B002200009600F039FA039BB5
:10B820000EAA2900280000F013FA06AA3B00100017
:10B830002900009600F02CFA32002100280000F0C8
:10B84000B4FA32000499200000F0AFFA320006A9E1
:10B85000049800F0AAFA17B0F0BDC046FFFFFF3F02
:10B86000F7B5019202229F5E0E003A001F211F329F
:10B87000D4170C40A21852112433009354B2010083
:10B880002300009A300000F0D3F8012500280AD1E7
:10B89000630105009F4206DA3900300000F016FB14
:10B8A0000500681E854131002300009A019800F0D0
:10B8B000BFF82800FEBD0000F0B585B0019105007D
:10B8C00011000198140000F041FA184B1B68002B7E
:10B8D00001D1002027E0A3001E1F02936301181A64
:10B8E000012300B25B42C3404027AE1903930F4BC4
:10B8F00002991B68280098470028EAD03268039B09
:10B90000210013403360280000F0F1F8002803D034
:10B91000013F002FEBD1DCE722002900019800F065
:10B92000BEF80128F4D105B0F0BDC046805A002011
:10B93000F8B507000E00150040241F210222AB5E5F
:10B9400030001F33DA170A402900D3185B115AB2AE
:10B950002431FFF7B1FF002801D100200BE02A00BD
:10B9600031003800FFF7C6FC002803D1013C002C51
:10B97000E3D1F2E70120F8BD00487047405A0200C9
:10B98000014B18607047C046805A0020F0B51C007B
:10B990000023A9B010AE06AF7E60E35608AD039356
:10B9A0000123E3560490059228001A00069502939D
:10B9B000FFF7A3FE029B04995A0018A8FFF79DFE0B
:10B9C0002300320029002800FFF74AFF154B05002D
:10B9D0001E68002E08D08300DE59211D039A300016
:10B9E000FFF76AFF00281AD06B425D41638818A9EF
:10B9F00001331BB200930194AD00330008007A5963
:10BA0000FFF79EFC029A18A90598FFF776FE2178A9
:10BA100018A8490049B200F06AF84342584129B0D9
:10BA2000F0BDC046805A0020000000000000000069
:10BA300070B50824E31ADB0001330400002003A5DD
:10BA40005B1920C940CAAD1920C4184720C940CA93
:10BA5000754120C420C940CA754120C420C940CACC
:10BA6000754120C420C940CA754120C420C940CABC
:10BA7000754120C420C940CA754120C420C940CAAC
:10BA8000754120C4404170BD00231A0010B58B429F
:10BA900004DA9C00013322505BB2F8E710BD30B5E8
:10BAA00089B0130015000A000100684600F0E0F9B3
:10BAB00029000400684600F01AF843424341601E22
:10BAC00084416400181B09B030BD10B5013A52B270
:10BAD000002A08DB9300C458CB589C4205D8F5D205
:10BAE0000120404202E0002000E0012010BD0023C0
:10BAF0001A0010B58B4205DA9C002458013322430A
:10BB00005BB2F7E75042504110BD70B500251E00F2
:10BB100004AB5D5704002B00FFF78AFF002806D115
:10BB20002A0021003000FFF7D0FF012805D02B00AC
:10BB300032002100200000F09BF970BDF0B50E002E
:10BB4000A3B007001900300015001C00FFF7CFFF5D
:10BB5000002804D021003800FFF796FF76E031007E
:10BB60000126220002A800F020F9220029000AA8DC
:10BB700000F01BF9210012A8FFF786FF21001AA888
:10BB80001296FFF781FF22000AA902A8FFF79DFF86
:10BB9000002856D0029B0193334204D1210002A811
:10BBA00000F0F4F827E00A9B0193334204D121000E
:10BBB0000AA800F0EBF83EE0230000281FDD02A9F0
:10BBC0000AAA080000F054F9210002A800F0DEF8EB
:10BBD00022001AA912A8FFF778FF002805DA12A997
:10BBE00023002A000800FFF723FF12A923001AAA46
:10BBF000080000F03DF92200290012A81EE00AA961
:10BC000002AA080000F034F921000AA800F0BEF8EA
:10BC1000220012A91AA8FFF758FF002805DA1AA96E
:10BC200023002A000800FFF703FF1AA9230012AA25
:10BC3000080000F01DF9220029001AA800F02AFAD5
:10BC4000A1E7220012A9380000F0AFF823B0F0BD40
:10BC500030B51C000023050091B0E3566846AC34B3
:10BC600000F028F8236869462800984711B030BDD5
:10BC700030B514000022050091B0A2566846AC34DD
:10BC800000F09EF8236869462800984711B030BD3F
:10BC900070B500251E0004AB5D5704002B0000F0BA
:10BCA000E7F8002805D02B00320021002000FFF724
:10BCB000BFFE70BDF0B55F4656464D464446F0B4F3
:10BCC000013B9B0098465B00994600230024002519
:10BCD000002601B4002702E0370040463F1A9A468A
:10BCE000A346AC46B646F01B1458C859030C80B2A4
:10BCF000250CA4B21E006E436343454360431C04FD
:10BD00001B0C00195E412C042D0C00196E4153468A
:10BD10005C4665461B187441002045417646043751
:10BD2000474501DCB742DADD0098835123462C46B3
:10BD3000002504364645CDDD4E45CDDD835101BCA1
:10BD40003CBC90469946A246AB46F0BD0300013983
:10BD500049B2002909DA0020013149B2814212D0EA
:10BD6000094A8A189200D35804E08A00D258002A5F
:10BD7000EDD0F0E7002B02D05B080130FAE7013983
:10BD80004901081800B27047FFFFFF3F002310B5BC
:10BD90008900411804390A1D904205D20A685408E6
:10BDA00023430B60D307F5E710BD002330B5934262
:10BDB00005DA9C000D59013305515BB2F7E730BD40
:10BDC000F0B55F4656464D464446F0B4013A9200FF
:10BDD000904652009146002200230024002501B421
:10BDE000002602E02E004046361A92469B46A446A4
:10BDF000AE46AF1BCB598859020C80B21C0C9BB2CB
:10BE0000150065435A43444358431304120CC018A9
:10BE100055412304240CC018654152465B466446D4
:10BE2000BE4203DA002712186B417C41002712182A
:10BE30006B417C4175460436AE4202DAAF1BBE420E
:10BE4000D3DD009842511A46234600240435454567
:10BE5000C6DD4D45C6DD425101BC3CBC904699460D
:10BE6000A246AB46F0BD000000000000000000004C
:10BE700070B50824E31ADB000133002403A5C04693
:10BE80005B1920C940CAAD1B20C0184720C940CA51
:10BE9000B54120C020C940CAB54120C020C940CA10
:10BEA000B54120C020C940CAB54120C020C940CA00
:10BEB000B54120C020C940CAB54120C020C940CAF0
:10BEC000B54120C064416042604170BD1F234A11EA
:10BED00019401E3B8B4092001058184070470000DC
:10BEE000F0B50C0000278BB008220500FFF75DFFBE
:10BEF000E36A02AA0593236B11000693636B10009B
:10BF00000793A36B04970893E36B039709930823A4
:10BF10000297FFF78DFD0823060002AA29002800DA
:10BF2000FFF786FD236B02AA0593636B110006934E
:10BF3000A36B36180793E36B100008930823099747
:10BF4000FFF776FD0823361802AA29002800FFF71C
:10BF50006FFD236A36180293636A02AA0393A36AE9
:10BF600029000493A36B28000893E36B07970993B8
:10BF7000082306970597FFF75BFD636AA26B0293A0
:10BF8000A36A06920393E36AE26B0493636B361829
:10BF900005930893236A0792099302AA08232900AC
:10BFA0002800FFF745FDE36A36180293236B02AAC7
:10BFB0000393636B29000493236A28000893A36A00
:10BFC00007970993082306970597FFF751FF236BFF
:10BFD000361A0293636B02AA0393A36B290004939E
:10BFE000E36B28000593636A07970893E36A069753
:10BFF00009930823FFF73CFF636B361A0293A36B88
:10C0000002AA0393E36B29000493236A2800059393
:10C01000636A08970693A36A0793236B099308231F
:10C02000FFF726FFA36B361A0293E36B02AA039372
:10C03000636A29000593A36A28000693E36A0497BC
:10C040000793636B0897019309930823FFF710FF89
:10C05000341A0F4EBC4216DA321D0823290028007C
:10C06000FFF7E6FC2418F7D410E0301D0822290061
:10C07000FFF72BFD012809D0321D082329002800D5
:10C08000FFF7F6FE241A002CEFD0F5E70BB0F0BD59
:10C09000405A020070B50368050014000026DB0753
:10C0A00005D513000A000100FFF7C2FC06002100BD
:10C0B0002800FFF76BFE002E08D0054BE018802308
:10C0C0008000281802681B061343036070BDC04639
:10C0D000FFFFFF3FF0B58DB0040015000F002022D8
:10C0E000002104A8FFF751F8032304930023EB5623
:10C0F0002A00390020000393FFF7BAFD039B2E1D91
:10C10000009304AA330021002000FFF7C1FD2B009B
:10C110003A0021002000FFF79BFD2A00039B843298
:10C120000093210033002000FFF7EFFC0DB0F0BDBD
:10C13000F0B50025FF268BB0013601242F4601956E
:10C14000304605F09FF8002807D048484068204254
:10C1500003D0304605F08EF82543361D64007F1C61
:10C16000B6B2042FECD3FF247D34204605F08AF8C4
:10C17000002807D0204605F07DF8600705433C48BD
:10C18000006901903B4C280714D0012700262F425C
:10C190000CD03948B200111808690969C004C00EF2
:10C1A0008903A258890F002A00D090477F00761C8F
:10C1B000042EECD3002D57DA00200590401E4DE0F0
:10C1C000A119403108788506AD0E42B2521C39D013
:10C1D0000121A940089A0091114233D080090390AF
:10C1E000284602F0A9F9800020580490002802D1C6
:10C1F0000398032826D103980099032802D10598B3
:10C20000084305901D4AA80080180068019A800321
:10C21000800F114202D0022802D013E0032811D16E
:10C220000399032907D102281CD00221284605F0D2
:10C2300011F87F1CFFB20498002803D0049A284606
:10C2400003999047761C042EBAD3002F0CD00848CF
:10C2500000690199884207D00190059800273E4661
:10C260000890ADE70321E1E70BB0F0BD00630040AB
:10C2700000050050D84D0020006500400007005028
:10C280008307FF22DB0E9A408907090E9940002898
:10C290000BDA0007000F0838830808489B001818BD
:10C2A000C36993430B43C3617047830804489B00F1
:10C2B0001B181868904308431860704700ED00E0B1
:10C2C00000E400E0F8B5FF20013004F0D3FC0024C6
:10C2D00001250E4E0E4F002807D00E4804600120A5
:10C2E000B0607D70002002F089F9FF20053004F075
:10C2F000C1FC002808D00748001D04600220B0607F
:10C30000BD70012002F07AF9F8BD00000003004082
:10C31000C44D00200001004010B50649002008600F
:10C3200048608860C860034940390860486008F088
:10C3300051FC10BD40110140FFB5114F0446387843
:10C3400081B01D461646002801D100F0B7F83869C3
:10C35000A04211D918200A4960434118002C06D088
:10C360000298CE610D6288610020886248620A9856
:10C37000C862002005B0F0BD0020C043FAE700000D
:10C38000085A002070B50E46182148431349144638
:10C390004518E86A1835002804D001280FD0022873
:10C3A00005D113E0284600F0BFF8A04201D20024D6
:10C3B00011E022463146284600F0F1F80BE028460D
:10C3C00000F0B2F8A042F4D20446F2E73146284623
:10C3D00000F0B5F80446204670BD0000085A002061
:10C3E00010B508F069FB10BD10B50648406800287C
:10C3F00005D08047002801D000F084FD10BD03F077
:10C40000CFFE10BD1C38002010B503F039FF002806
:10C4100005D01F491D484860C8131E4988611E4841
:10C42000018CC9B201290BD1828C120708D1028D6F
:10C430001206120F042A03D1828D1206120F0AD09F
:10C44000012921D1818C09071ED1018D0906090F0F
:10C450000A2904D007E0114A01219160F5E7828D95
:10C460001206120F05D00D290ED1808D0006000F87
:10C470000AD10B480168012904D00A49016001680A
:10C480000129FCD1C021416110BD0000DFFF07C0C0
:10C4900000050040006C0040C00F00F000060040A6
:10C4A00000EC06407593000010B50249024808F000
:10C4B0009DFC10BD204E00200020004010B5124C05
:10C4C00002202061606111A0A0611348E061012099
:10C4D000800220620020A06260620CA1A16421465B
:10C4E000E0621039E16410212165A0656065E065B6
:10C4F0000AA1E01DFEF766FE09A12046FEF762FED6
:10C500002020A07110BD0000085A00205465726DF3
:10C51000696E616C00000000F85500205254540010
:10C5200053454747455200000269C1688A4203D813
:10C530008068401A801800E0501A401E7047F7B516
:10C54000064682B000200090F46817463069A04289
:10C5500001D9051B02E0B168201A0D1AB0686D1EE2
:10C56000001BA84200D80546BD4200D33D46706876
:10C570002A4600190399FEF7DFFD00987F1B40193A
:10C5800000900398641940190390B068A04200D14C
:10C590000024F460002FD9D1009805B0F0BDF7B5A4
:10C5A000C668174604468068851B6068BD4206D988
:10C5B00080190199FEF7C0FDF019E060FEBD2A4622
:10C5C00080190199FEF7B8FD01987E1B411932468A
:10C5D0006068FEF7B1FDE660FEBD00000FB410B567
:10C5E00004A9074B02AA039800F036F8044602A9F2
:10C5F000002000F06BFA204610BC08BC04B01847BD
:10C60000CDCA010030B47446641E2578641CAB4268
:10C6100000D21D46635D5B00E31830BC184702E0A2
:10C6200008C8121F08C1002AFAD1704770470020BD
:10C6300001E001C1121F002AFBD17047202804DA53
:10C64000012181400348014201D0012070470020B0
:10C6500070470000FC06FFBCFFB591B00F460546D1
:10C66000002606E025280AD0149A139990476D1CDD
:10C67000761C28780028F5D1304615B0F0BD00248E
:10C6800000940121F34A029400E004436D1C2B78CE
:10C690000846203B98401042F7D128782A280ED02F
:10C6A000022128780246303A092A15D8009A0A232E
:10C6B0005A43303A80180C436D1C0090F1E701CFCB
:10C6C0000090002805DA012040030443009840420E
:10C6D0000090022004436D1C28782E2815D10420D8
:10C6E000044368786D1C2A280AD101CF6D1C029082
:10C6F0000BE002990A225143303940186D1C029018
:10C700002878014630390929F3D928786C2810D0C7
:10C7100006DC4C281AD068280ED06A2817D104E00D
:10C72000742813D07A2812D110E001204005044368
:10C730000CE00121090501E0032109050C4369789A
:10C74000814203D10120000524186D1C6D1C28783E
:10C7500003906E281ED00CDC632831D004DC002846
:10C760008AD0582811D1B2E064287BD069280CD136
:10C7700078E073282DD004DC6F2870D0702804D1A5
:10C78000A7E075286CD078286BD0149A139990473D
:10C79000761C62E06002400F022807D003280AD00E
:10C7A000042838680AD006603F1D56E03868F11743
:10C7B00006604160F8E738680680F5E70670F3E741
:10C7C0003878694608740020487404A80390012052
:10C7D00003E0386803900020C0433F1D61070FD578
:10C7E000002101E00199491C029A0191914213DA5A
:10C7F0008142F7DB019A0399895C0029F2D10BE0B1
:10C80000002101E00199491C01918142FADB019A62
:10C810000399895C0029F5D101990098139A401A6F
:10C8200000902146149B00F03BF9019980194618AD
:10C8300007E0039803990078491C0391149A13990F
:10C8400090470198401E0190401CF2D12146149B54
:10C85000139A009800F014F986196D1C09E741E05D
:10C8600033E034E00A200021049005916002410F7A
:10C87000022905D001CFC2179446032905D007E04D
:10C88000FF1DFF08FF0003CF06E000B2C217944669
:10C89000042902D140B2C1178C460022614694455A
:10C8A00006DA0A460021404291418C462D2102E0E1
:10C8B000210504D52B216A461176012103E0E10709
:10C8C00001D02021F7E7019154E00A200BE010206D
:10C8D00009E0102004900021042004430820059161
:10C8E000029003E008200021059104906002410FAE
:10C8F000022905D001CF00229446032906D006E084
:10C90000FF1DFF08FF0003CF8C4603E080B204291F
:10C9100000D1C0B20021019121072BD503997029C4
:10C9200006D0049A1021059B4A401A4305D00EE018
:10C9300040216A461176012108E06146014306D094
:10C9400030216A4611760399517602210191049AA9
:10C950000821059B4A401A430CD16146014301D18D
:10C96000610707D530216A461176012101910299AC
:10C97000491E02910399582904D037A103910FA9A8
:10C980000F910DE039A1F9E76146059B049AFEF786
:10C9900022FC039B8C469B5C0F9A521E0F921370D5
:10C9A00061460143F0D10F9807A9081A203003907F
:10C9B000600704D5012000048443029801E00120AF
:10C9C00002900399884201DD401A00E000204118DE
:10C9D0000290019809180098401A0090E00306D4CC
:10C9E0002146149B139A009800F05AF886190020EB
:10C9F000049008E006A9085C149A139990470498DB
:10CA0000401C761C049001998842F3DBE0030CD5AE
:10CA10002146149B139A009800F042F8861904E00E
:10CA2000149A302013999047761C0299481E029060
:10CA30000029F5DC08E00F980F990078491C0F9148
:10CA4000149A13999047761C0399481E0390002965
:10CA5000F1DCFBE60928010030313233343536375A
:10CA6000383961626364656600000000303132333A
:10CA700034353637383941424344454600000000DA
:10CA8000F8B5044600251E461746880404D405E080
:10CA900039462020B0476D1C641EF9D52846F8BDE4
:10CAA000FFB50446002581B01E46C80301D53027D6
:10CAB00000E02027880404D505E038460399B047F4
:10CAC0006D1C641EF9D5284605B0F0BD0A68531CDC
:10CAD0000B601070704710B500280CD000290AD0E8
:10CAE00002780B789A4206D10622401C491CFEF7B8
:10CAF0005CFB002801D0002010BD012010BDF7B55F
:10CB000084B0064600251788158020300290407BAF
:10CB10001446002806D03A462146059800F09CFFAE
:10CB2000050009D1B078002823D0059886462088D2
:10CB3000001DB84202D90C2007B0F0BD684679DF6D
:10CB40000028F9D1218803207246505420881921E9
:10CB5000401C80B22080115420887146401C80B255
:10CB6000208041186846008808F0D4F921884018D0
:10CB70002080F078002817D0218803230A46F35636
:10CB8000C91C0598B942D6D80221815421880122B6
:10CB9000491C89B2218042542188491C89B22180D4
:10CBA00043542088401C20807068002817D02188BA
:10CBB0000023C3560A46C91C0598B942BBD80221B6
:10CBC000815421880A22491C89B22180425421883B
:10CBD000491C89B2218043542088401C2080308920
:10CBE00000280AD00094304601970622022108301E
:10CBF000059B08F0E9F905009ED1308A00280AD08B
:10CC0000009430460197072203211030059B08F05D
:10CC1000DBF9050090D1308B00280AD00094304613
:10CC20000197152214211830059B08F0CDF9050055
:10CC300082D1306A002806D03B462246059901F091
:10CC400045FD0500D8D1706A002806D03B46224633
:10CC5000059903F043FF0500CED10298007B002820
:10CC600007D03B4622463046059907F039FB0500C0
:10CC7000C2D13078002807D03B462246304605997D
:10CC800003F060FF0500B7D1284655E7174A002199
:10CC9000535C002B01D0012203E0491C0629F7D385
:10CCA00000221349012806D002280BD0032810D0F7
:10CCB000042818D112E04878002803D0002A01D0B7
:10CCC000012070478878002803D0002A01D0022074
:10CCD0007047C878002801D00320704708790028E1
:10CCE00001D0042070470020704700000137002069
:10CCF0004844002070B500238D880C680DE0E618CC
:10CD00007678E15C864206D1E018801C491E1060EE
:10CD10009180002070BD5B185B1C9D42EFD8052000
:10CD200070BD000008B5684602F068FB002801D01D
:10CD300000F0E8F80098002812D107F02DF8012142
:10CD400008484905C16000218160032000F038FBDC
:10CD5000002801D000F0D6F803A1032004F0AEFCB7
:10CD600008BD0000000500504150503A494E464F62
:10CD70003A4164766572746973696E670D0A0000E2
:10CD800010B501220221002001F08EF9002801D007
:10CD9000072812D107220221012001F085F900287D
:10CDA00001D0072809D100210A22084601F07CF9A8
:10CDB000002801D0072800D1002010BDF0B50F4693
:10CDC0008DB0002116466D460F24621A825C6A54AB
:10CDD000491C1029F9D328460D211030FEF7D3F94C
:10CDE0000020221A395C5219401C11740328F8D310
:10CDF00068464DDF0020211A491920310978315445
:10CE0000401C0328F7D30DB0F0BD00000448426871
:10CE10000121C9050B46934383600A40C2607047F5
:10CE20000005005070B50024064D06E06968E0007A
:10CE3000085C012103F0ACFF641C28788442F5D320
:10CE4000002070BDB0370020F8B515460C460646E8
:10CE5000052A01D20720F8BD04F070F8002803D19C
:10CE600004F03EF80028F6D1104900204E600C7006
:10CE7000C8608D6008610E4D0DE0E00069688019A2
:10CE8000009181786A46517000780A4A694603F039
:10CE9000CBFF0028DFD12046641EE4B20028ECD18D
:10CEA000054A0021024800F039F8F8BDB0370020EB
:10CEB000D054020065F9010055EA010009A10120E2
:10CEC00004F0FCFB04F042FB04F046FB0028FBD11D
:10CED00000BEBFF34F8F0A490848C860BFF34F8FA9
:10CEE00000BFFDE74150505F4552524F523A455204
:10CEF000524F523A466174616C0D0A000400FA0503
:10CF000000ED00E00EB50021029000916A4601910B
:10CF10000148FFF7D3FF0EBD01400000094B5B68DD
:10CF2000002B07D0002A07D0002805D00068037C1A
:10CF3000002B03D0082070470720704741744261DE
:10CF400000207047D4370020FFB507469007002522
:10CF500081B01E461446002825D1002C23D006F0AF
:10CF6000DBFE3046114EF0603046103005704570E3
:10CF70000299817044607560357001240C487570A9
:10CF80002405046003211420FFF77AF9094804609E
:10CF9000094CA76003211120FFF772F96068B060A7
:10CFA000002005B0F0BD0720FBE70000C4370020DB
:10CFB00080E200E000E100E000150140FEB51F4BFB
:10CFC0005B68002B30D000282ED0052901D2072025
:10CFD000FEBD4369002B27D0437C012B26D00027C0
:10CFE000029104460025694616460D70684600F019
:10CFF0003DF801A807F0D2FF002819D001210170E7
:10D000000F49446049688160029907614661C160C7
:10D0100068460A49007948706846007800F044F88C
:10D0200007F08CFD2846FEBD0820FEBD0F46D7E761
:10D0300068460425007800F037F8F3E7D43700207D
:10D040000015014010B50849496800290AD0002898
:10D0500008D04169002905D000210174022107F0A0
:10D0600095FD10BD082010BDD437002030B5EFF37A
:10D07000108172B6094A54680123002C04D0037051
:10D08000002900D162B630BD5360054B1D68054CC8
:10D09000254015601C6000220270F1E7E83700208F
:10D0A00080E100E0FC06FFBC08494A68002A0CD079
:10D0B00000280AD1EFF3108072B60A68044B1A6098
:10D0C00000224A60002800D162B67047E83700208D
:10D0D00000E100E0F0B504468BB0008800F00AFBE8
:10D0E0000590208802F0CAFF0646A0680090657A85
:10D0F000684605741E4F20880022397800F04AFBEC
:10D100000598002831D06079400710D507213046B6
:10D1100005F05CFC002813D0082269460A742288B6
:10D120004A828E82069004A801F03CFE08E0208826
:10D13000B97800F01DFB002802D0304602F088FFCD
:10D140000321684601712188C18060794007C10FC1
:10D1500068460172A0794007C10F684641720178A4
:10D160008172C57201A801F01DFE0BB0F0BD000078
:10D1700084370020F0B50C4693B01F216A46118019
:10D18000072600279180002809D0C17849070DD5CE
:10D1900002A9FFF7B4FC002809D102AD01E0002587
:10D1A0001780002C0ED0E078002802D0304613B053
:10D1B000F0BD01AA0AA92046FFF7A1FC0028F6D17C
:10D1C0000AAA02E068460022878068468088C3B2C7
:10D1D00068460088C1B2284672DFE8E7FFB581B033
:10D1E0001E460A9F1346040047D0002B45D0504DE1
:10D1F000012028700020E870202219464D48FDF7D4
:10D200009BFF00206F61C0432E61288128460721C3
:10D210001830FDF7B8FF474838212030FDF7B3FF3D
:10D220004448217820300170A1788170E178C17084
:10D23000617841703F4A65692369556311461363FC
:10D240002031E368A268CB608A603A49E369A26949
:10D25000CB638A63616A00291AD0014638310246DD
:10D26000443241628A60636A1B880B80616A436A48
:10D27000898899800021436A07E00E2005B0F0BD3F
:10D28000656AAD686D5C5554491C9D888D42F7D820
:10D29000A16A00291CD0274A903211460C398A60B5
:10D2A0008162A36A9B888B80A16A836A098819803E
:10D2B0000021836A04E0A56AAD686D5C5554491C81
:10D2C0009D888D42F7D82C210A5D1A4940310A7396
:10D2D000216A002909D016490A310162226A52885E
:10D2E0004A80216A026A098811806168002900D099
:10D2F0004160104A0E490020AF322031C3001B1A92
:10D3000085009B180C68401C63510828F6DB094A0D
:10D310000020E732030185009B188C68401C635194
:10D320000828F7DB034802992030FFF723FFA5E721
:10D33000E83600204844002010B50188134C10291D
:10D3400015D0112919D01B2910D1007A00280DD130
:10D35000E0780521401CFDF7D9FE084600F030F8C2
:10D36000002803D06169002900D0884710BD817D65
:10D370000129FBD18088208110BD00216171808846
:10D3800021898842F8D10120E8E70000E836002032
:10D3900010B5022801D003280ED1084C607800286F
:10D3A0000AD000206070E07800F00AF8002803D06E
:10D3B0006169002900D0884710BD0000E8360020D0
:10D3C000F1B53F4C88B0207800280AD00898E0706A
:10D3D00006A802F013F806980125002804D065700D
:10D3E0006AE0082009B0F0BD354800270721183051
:10D3F000FDF7C9FE334E7078002802D0E07801288E
:10D4000007D0B07800280CD0E078012801D002289D
:10D4100007D12169002903D025710820884700E041
:10D4200027710898FFF732FCE0702169002909D0C4
:10D43000032801D0042805D13078002802D0607973
:10D44000002811D0A77118216846FDF79CFE684698
:10D4500007700772E1781A480B001830FFF7D2F80E
:10D46000052E080F191D2000A57107208847EAE73F
:10D47000A5700190684605704782078213E002217B
:10D48000A170019068460570B1894182318901829D
:10D4900009E0684606F09AFF02E0684606F0C2FF1F
:10D4A000E078002803D0684673DF00289AD121690C
:10D4B000002901D0A0788847002093E7A770F6E7FD
:10D4C000E83600204844002070B5054601461C227D
:10D4D0000E48FDF731FE0E4C002626702968002903
:10D4E00006D00822201DFDF727FE201D7ADF02E06E
:10D4F0000748001D7BDF002807D1401E6080667052
:10D50000044A00210448FFF709FD70BD10460020C1
:10D5100018370020214F02003C540200F8B5214C7E
:10D520000146028800261E48E589102A13D01E4FA6
:10D53000112A1FD0122A2BD0502A1AD1881DC9882F
:10D54000A94216D14189022913D10C3000F040FCC8
:10D5500000280CD112E08A88044642801048082234
:10D560000C301831FDF7E8FD6670002D01D101F097
:10D57000F5F8F8BD0021C943418046703868FFF7CF
:10D5800061FD0028F5D0A1690029F2D08847F8BDD7
:10D59000034808220C300831FDF7CEFDE7E7000014
:10D5A00018370020104600203C54020010B50349F3
:10D5B0000A7D091D06F0A1FC10BD00002C460020CC
:10D5C000034B10B50246D97D181D06F083FC10BD33
:10D5D0002C460020034B10B50246197E181D06F09C
:10D5E00079FC10BD2C46002010B50349887D497D8B
:10D5F000084006F0A5FC10BD2C460020F0B50446FE
:10D6000002883A488DB0014615310191102A09D09F
:10D61000112A50D01A2A4AD1217A090901294ED952
:10D6200001234DE0027D417D05468A43011D07A887
:10D6300006F063FC142207A902A8FDF77DFD002671
:10D640002A483746143008900AE0710002A80818EA
:10D6500083881D220097281D089906F0FBFB761C85
:10D660000298B042F1D8287DA688C043C0B206F027
:10D6700015FC1F49884217D04000401986800123BD
:10D680003246281D019906F06BFC01233246281D05
:10D69000089906F065FCA07D02280AD000231349F2
:10D6A000A2881631281D1DE00420FFF72BFC0DB0C9
:10D6B000F0BD0123F3E70023A288001D12E0002340
:10D6C0000A490546A2881731001D06F049FC207A58
:10D6D0000009022801D9012300E000230349A288A0
:10D6E0001831281D06F03CFCE1E700002C46002024
:10D6F000FFFF000070B50B4E05460024317D2A4621
:10D70000301D06F0E7FB002809D0B17D2A46301D08
:10D7100006F0E0FB002801D0022400E001242046AE
:10D7200070BD00002C46002010B50024204607F0F4
:10D7300029FC002805D0641CE4B2182CF6D318206C
:10D7400010BD044801220168A24011430160204637
:10D7500010BD00002C46002010B5044607F012FC56
:10D76000002802D001480019407E10BD2C46002040
:10D7700070B505460C46084607F004FC002806D0A4
:10D7800003482A460119497E001D06F0A3FB70BD1F
:10D790002C46002070B5064615460C46084607F094
:10D7A000F1FB002807D004482B4601193246001D22
:10D7B000193106F0D5FB70BD2C460020002808D09A
:10D7C0000180002A03D01188418051888180002087
:10D7D00070470E20704710B5002805D0418800889A
:10D7E000012200F04BFE10BD0E2010BD38B5002800
:10D7F00010D000290ED001246B469C701A80096855
:10D800008160A11E0180002141808180684600F076
:10D8100087F838BD0E2038BD10B500280AD0002981
:10D8200008D00B88112B0DD0382B04D0392B01D107
:10D8300004F0B8FC10BD008889888842FAD107F04E
:10D8400069FA10BD028889888A42FAD10021C94349
:10D85000018000214180818010BD00007CB505461B
:10D8600008781E46002839D18888904236D18879B8
:10D87000012833D10122684602704A884280002480
:10D88000174A087A0FE00C2363435B18DB89934245
:10D8900008D10C2044436018028B69468A80C08AF4
:10D8A000C88002E0641CA042EDD80EA1032003F062
:10D8B00005FF2888194988420BD06888002808D1BC
:10D8C000A888002805D16846808868806846C08896
:10D8D000A880AB6832466946284698477CBD000060
:10D8E000372A0000424C455F435553544F4D5F4328
:10D8F0003A494E464F3A437573746F6D20536572C3
:10D900007669636520646973636F76657265642008
:10D91000617420706565722E0D0A0000FFFF000023
:10D9200070B500280AD00F4D2978002908D0044688
:10D9300006F0CCF9002805D0002070BD0E2070BD87
:10D94000082070BDE868062809D2074A81008918B6
:10D9500022880A8062884A80401CE860ECE7042044
:10D9600070BD00002C37002060460020002808D041
:10D97000002205490123CA600B708A604860104686
:10D9800070470E20704700002C37002010B500288B
:10D9900011D000290FD0124A1278002A0BD00A8821
:10D9A000112A11D0302A07D0322A09D0332A02D1C5
:10D9B000091D04F03FFB10BD091D04F04FFC10BD14
:10D9C000091D04F0B7FA10BD8A88FF21AB31095A4E
:10D9D0008A42F8D10021FF30A130C17110BD000092
:10D9E0002C37002070B50E4600280ED017490A7853
:10D9F000002A0CD0CA68002A09D00446FF34A1349A
:10DA0000E279002A05D0112070BD0E2070BD0820DB
:10DA100070BDFF22AB32165200228A600546227288
:10DA20000B48A27101882980408868808AB23346F9
:10DA30000849032003F092FE2A460121304690DF78
:10DA40000028E5D10120E071002070BD2C370020B6
:10DA500060460020D45602007CB5054608880C4676
:10DA60000930904201D90C207CBD684671DF002846
:10DA7000FAD121880820685420881B21401C80B2DC
:10DA800020802954208800A9401C80B220804019A1
:10DA900006220131FDF750FB20886946801D80B2C7
:10DAA00020800978002900D0012129542088401CB9
:10DAB000208000207CBD000070B50446FFF79EFD6D
:10DAC000204605F0B1FCA5882846FFF713FE064660
:10DAD0002146284604F0C0F8012E05D02088022EE9
:10DAE00010D01D2810D070BD204604F0A1F92046AA
:10DAF000FFF722FC2046FFF711FD2146154800F0F4
:10DB0000DBF870BD112802D0204603F04DFF062D32
:10DB100007D2FF20AD3045430F4821462818FFF7B4
:10DB200035FF0D482146243800F04AF80A48012202
:10DB300021461838FFF770FE0748022221460C38AC
:10DB4000FFF76AFE20881128DBD1204603F02CFF66
:10DB500070BD000000430020F8380020002808D0E5
:10DB60000180002A03D011884180518881800020E3
:10DB700070470E20704710B5002805D041880088F6
:10DB8000012200F04FFC10BD0E2010BD08B500288A
:10DB900012D0002910D001236A469370074B1380DE
:10DBA000096881600021C943018000214180818092
:10DBB0006846FFF7B5FE08BD0E2008BD0D18000031
:10DBC00010B500280AD0002908D00A88112A0DD0E3
:10DBD000382A04D0392A01D104F096FA10BD008801
:10DBE00089888842FAD107F04DF810BD02888988EB
:10DBF0008A42FAD10021C9430180002141808180FD
:10DC000010BD000030B50446008C134A8BB0904222
:10DC10001FD006AA204602F01BF869460546088078
:10DC20000020019002900390049022898A800122B2
:10DC30008A71088106A803910490208C01A9A6DFAF
:10DC4000002804D169460988A94200D00C200BB0F5
:10DC500030BD0820FBE70000FFFF000038B5044698
:10DC600008682060087960710020C0430D46208458
:10DC70000020222108554C2108530121684681705B
:10DC80000C490180A21D69460120A0DF00280FD1A8
:10DC90002946204601F084FF002809D1A868002801
:10DCA00005D02946204600F0D3F8002800D10020F6
:10DCB00038BD00000D18000038B50246088810284D
:10DCC00016D0112816D0502817D1881DC9889389DD
:10DCD000994212D14189144602290ED121680029A6
:10DCE0000BD00C3000F074F8002807D0002006E0BC
:10DCF000888801E00020C043108438BD01206946B7
:10DD0000087022682046904738BD00007CB5044664
:10DD10000878002839D188881C4A904235D1887902
:10DD2000012832D10122684602704A8842800022CE
:10DD3000174B087A0FE00C2555436D18ED899D426D
:10DD400008D10C2042435018028B69468A80C08A51
:10DD5000C88002E0521C9042EDD80EA1032003F0CF
:10DD6000ADFC2088194988420BD06088002808D172
:10DD7000A088002805D16846808860806846C088F1
:10DD8000A080A2686946204690477CBD0D1800001F
:10DD9000372A0000424C455F4852535F433A494E90
:10DDA000464F3A486561727420526174652053652C
:10DDB000727669636520646973636F766572656402
:10DDC00020617420706565722E0D0A00FFFF00004F
:10DDD0004178027808021043C007C00F7047000066
:10DDE00000B5174887B040680590002348221549C0
:10DDF00005A806F01DFE002801D0FFF783F86A464B
:10DE00000121052006F0FCFD002801D0FFF77AF87B
:10DE1000684606F087FD002801D0FFF773F80A482E
:10DE200006F076FD002801D0FFF76CF8074806F0F1
:10DE300031FE002801D0FFF765F807B000BD0000F3
:10DE4000E053020044380020B9DA0100A94A020078
:10DE5000F0B58FB00D4606461C216846FDF793F9D4
:10DE6000684601780220014368460170002401944D
:10DE7000039404940594012708A806948770154913
:10DE8000684601840794E97B0177297C4177807F8C
:10DE9000F9210840F721801C0840EF210840410883
:10DEA000490068468177142109A8FDF76CF908A894
:10DEB000099007A80A9068468785C4850786A868E0
:10DEC0000D903346F088103309AA6946A2DF0FB0DF
:10DED000F0BD0000382A00007CB5134E00250C462A
:10DEE0003060002918D06946002000F06FF8002843
:10DEF00019D101A9012000F069F8002813D1684662
:10DF000001790020002901D0022004E06946097847
:10DF1000002900D00B2020707068002802D1FEF785
:10DF20002FFF054628467CBDE0360020F8B50746A1
:10DF30000024234802E0641C042C1AD2A200825858
:10DF4000BA42F8D1042C14D21D481E4E0C380029B8
:10DF500029D001290ED002290BD160002018801988
:10DF60004578002D05D018480169002901D02846C0
:10DF70008847F8BD61006118755C8E1971780029B9
:10DF80000CD011490A224968806851430E4A521C3C
:10DF9000FFF714F8002801D10B4847700A48B17800
:10DFA00014300155DDE78068FFF74CF80648610042
:10DFB000611814308919005D8D78A842D1D0F8BD60
:10DFC0000C5402001C440020C836002004280CD247
:10DFD000074A1269074B80001B5C01209840904360
:10DFE00000D001200870002070470020FAE70000F0
:10DFF000000500500C54020070B50025184C0D2887
:10E0000012D00E280FD1207800280CD015A10320A3
:10E0100003F054FB00221146E08880DF002801D085
:10E02000FEF770FF257070BD57211548FFF7EAFD18
:10E03000002809D0082807D01249884204D0124984
:10E04000884201D0FEF75EFF20780028EBD00FA1B8
:10E05000032003F033FB00220121E08880DFDDE7AD
:10E06000983600204150503A494E464F3A4E756D11
:10E07000657269632052454A4543540D0A00000009
:10E080000043002004300000013400004150503AA9
:10E09000494E464F3A4E756D65726963204D617405
:10E0A00063680D0A0000000070B50023042811D237
:10E0B000440004190D4D012A02D101290DD000227E
:10E0C00046008019094E801900290CD0012906D07C
:10E0D000022906D00723184670BD0D30C2B22A555A
:10E0E000F9E74270F7E78270F5E700001C44002072
:10E0F00070B50E46204905464E608D6000200A61CD
:10E10000A9071ED50024012211462046FFF7CCFFA7
:10E11000641C042C02D20028F5D012E0002810D193
:10E12000720804211548FEF78FFE002809D1FEF77A
:10E1300079FE002805D11148114A00211438FEF754
:10E14000EDFEE90706D00F220E4952058A60002332
:10E15000CB608A6100280DD108480B4A00211C3889
:10E16000FEF7DCFE002805D10448084A01211838D2
:10E17000FEF7D4FE70BD0000C83600201C5402001B
:10E1800019E4010000050050F90202000DCE010063
:10E19000FEB57A4D0722EB6892059A4302936B68AD
:10E1A00000939C0006461B1900200121019349059C
:10E1B0000746734C3300FEF725FA180D151537473F
:10E1C00055677C887F8891DE9E9E9E9E9EC8CED19C
:10E1D000D8DEDE140F21029A49059143A160E76061
:10E1E0002F70FEBDA260E76060680F2252055040AC
:10E1F000800209D5A160E760022E02D1E120C000B3
:10E200000AE07D20400107E0E160A760022E01D115
:10E21000C82001E0FF2091302E706421FCF776FFCA
:10E220000099414300223FE0A260E76060680F224E
:10E2300052055040800204D5A160E76019204001DA
:10E24000EAE7E160A760E3E7A260E76060680F22A9
:10E2500052055040800202D5A160E760D1E7E1603D
:10E26000A760D7E7A260E76060680F2252055040C0
:10E27000800202D5A160E76001E0E160A7602E7036
:10E280000098410000220FE0A260E76060680F2262
:10E2900052055040800202D5A160E76001E0E160D4
:10E2A000A7602E700099002236480068FEF786FEAF
:10E2B000FEBDA260E7601BE06168012080050246A8
:10E2C0008A43A2600140E16010E060680121890595
:10E2D0000A468243A2600840E060E3E760680121EB
:10E2E00089050A468243A2600840E0600199C9E7B7
:10E2F000E160A7602DE023484068FEF7A3FE1121EE
:10E300008A1B01D0002807D00F22E968520511406E
:10E31000A160E760EF60FEBD0121C905E960012A47
:10E320000CD91046C82148436421FCF7EFFE696808
:10E330000022414313484068FEF740FE0F22E9687F
:10E3400052051140E160A760FEBD0F214905A160A3
:10E35000E7602E70FEBD07229205AAE70D21490550
:10E36000A160E76001218905C2E70321C905A16019
:10E37000E7608910BCE70F214905B9E7C8360020DE
:10E380000005005000540200002901DA0020704707
:10E39000026851180160012070470000F8B5461C62
:10E3A00000206946087001256846FEF75FFE1249A5
:10E3B000741C0A6848688B68101A1F1A7F1CBC42BC
:10E3C00012D9002F0ED00D480D4C0088246880050E
:10E3D0001A40800DA402920020435218D0600868B1
:10E3E000401C0860002501E090190860684600782C
:10E3F000FEF75AFE2846F8BDE05100200C550200F9
:10E4000018380020034803C8814201D10120704719
:10E4100000207047E051002010B500780221FFF77E
:10E4200085FD10BD70B514460D46064603460A46E6
:10E430000F49032003F092F90E49142208680E4B8D
:10E440004243401C4007400F0860D218558102200B
:10E45000D081101D10610020908101201072147174
:10E46000210A51711680907006F00CFC002070BDDE
:10E47000FC570200A0370020844C002070B51446E1
:10E480000D46064603460A460F49032003F066F987
:10E490000E49142208680E4B4243401C4007400FAF
:10E4A0000860D21855810220D081101D1061002013
:10E4B0009081012010721471210A517116809070A0
:10E4C00006F028FC002070BD00590200A83700208B
:10E4D000244D00200022D243830004490428CA505E
:10E4E00002D308182030027770470000D84D002072
:10E4F000F0B50025ED43002A02D00023042601E0F8
:10E50000042308260B4C04E09F00E7597F1C04D02D
:10E510005B1CB342F8D32846F0BD26185DB2203606
:10E5200035709E00A151002AF5D1E11820310877FD
:10E53000F1E70000D84D00200249091820200856B4
:10E5400070470000D84D002038B50B460146FF311A
:10E550000246A13188794624604380184A79002A0E
:10E5600008D0521ED2B20C214A431118498A6A4679
:10E57000491C01E0C1886A4611800089508011461B
:10E58000184692DF38BD0000002807D004498142B8
:10E5900004D80449814201D9012070470020704706
:10E5A0003438002044380020044A0168914201D0E8
:10E5B000083101E00149383901607047384F0020C7
:10E5C00070B50D4D04460A462846AC4208D1FF24DA
:10E5D00001342146104604F0E5FEA0420AD070BD89
:10E5E000FF2CFCD82146104604F0CEFE002801D0B6
:10E5F000204670BD284670BDFFFF000070B5084C76
:10E60000050009D010342168002907D0086820606F
:10E61000496828468847F6E70834F4E770BD0000EB
:10E62000C44D0020F8B52348416800293ED00E684B
:10E6300021494C6887688078E11B0D022D0AED1C8A
:10E64000002814D101201D4A000450601B4A403AA2
:10E6500050601B49400008601A4908601A490120AF
:10E6600008602F2002F00EFB124901208870B5428D
:10E6700000D23546E81900020F4B000A40331860FB
:10E680000D4A5168001B091B0902090A0002000A11
:10E69000C91C814209D9506818602F2002F0F2FA93
:10E6A00001200749400480390860F8BD05F034FBBB
:10E6B000F8BD0000C43700200015014040130140A0
:10E6C00080E200E000E100E000100140F8B50646FD
:10E6D000108814468446801D0D46984201D90C20AE
:10E6E000F8BD32880720062AFAD31927FF01184BF4
:10E6F000BA4201D99A42F3D171880629F0D3B942BE
:10E7000001D99942ECD19A4203D0994201D08A4270
:10E71000E6D805216046295420881221401C80B289
:10E72000208029542088401C80B2208041193088E4
:10E7300006F0F0FB2188401880B2208041197088D3
:10E7400006F0E8FB2188401820800020F8BD00007A
:10E75000FFFF000010B5FEF7D5FB10BDF8B5164859
:10E7600001F05EFD144D00260C3D144C002807D02E
:10E77000616900291CD001206A461070684616E0C5
:10E780002878002805D06169002911D068460670F4
:10E790000DE0687800280DD0A168094800220068C3
:10E7A000FEF70CFC002803D0A169002900D088479F
:10E7B0002E70F8BD6168F0E7243700201046002075
:10E7C0003C540200F8B50025441C68460E462F460E
:10E7D0000570FEF74BFC154A106893680146194016
:10E7E000591A491C8C4207D8411C194089008D18C0
:10E7F0000019106037600AE057681F40A74207D928
:10E800000319481E1818491E1060084D31600C3558
:10E8100003CA401A1168081A401C00D10025684636
:10E820000078FEF741FC2846F8BD0000E0510020CA
:10E8300070B5064608780C46012807D0022804D196
:10E840008B8817A1032002F089FF70BD1E4D1F4960
:10E85000A8888842F9D16288AA801D49032002F065
:10E8600051FF221DA9883046FEF7A8FF002801D0DD
:10E87000FEF748FB17A1032002F020FF0021A88823
:10E8800004F06CFC082803D0002801D0FEF73AFB06
:10E890003046FEF7A0FF0028D7D0FEF733FB70BD4F
:10E8A0004150503A494E464F3A43454E5452414CDE
:10E8B0003A20437573746F6D20526174652025642E
:10E8C000203D2025640D0A0098360020FFFF00003F
:10E8D000C05502004150503A494E464F3A43454ECA
:10E8E0005452414C3A20696E6974696174652073B1
:10E8F000656375726974790010B50446014609486C
:10E90000FFF704FA07480123074A21460C30FEF7B7
:10E91000A5FF054A03480223103A21461830FEF7A6
:10E920009DFF10BDD43800207D180000F0B585B0E3
:10E930000C46002802D0012005B0F0BD2079002748
:10E940000126002806D01F4D012820D002282CD0F7
:10E950000F20F1E702970397E0680190694601A84C
:10E9600005F0E8F800280ED002988188E180008840
:10E970002081029805F058F9694609880A01124970
:10E9800051188E7300E00A2002212171D4E70F4B49
:10E990006A460021A01D05F08BF8002807D00B491E
:10E9A00008398F60CF600A28C6D12846C4E701988D
:10E9B00005F03AF9054989880A01034951188E730F
:10E9C000F1E700001D1D0000484F0020F83700202F
:10E9D000F7B50546FF350646A135A87946214843D7
:10E9E00087196C790C206043C1193A79601C0A318F
:10E9F00082B0904226D101AB0022304601F01EFCCD
:10EA0000002822D010E0401EA04201D1002003E0E7
:10EA10000C206043C01916300246009001AB30460E
:10EA200001F00CFC002807D003980021017001A917
:10EA3000049893DF05B0F0BD68790099401C641C10
:10EA40006871E4B23879A042DDD8039801210170E1
:10EA50000020EFE7F8B500260124154D23E0696892
:10EA6000F0004718387821462A698140114218D0B1
:10EA70008A432A6102F02AFA3A782146EB689140EB
:10EA800019400346934099420BD17978012901D06E
:10EA9000012100E000217B684140002B01D010469D
:10EAA0009847761CF6B228788642D8D3F8BD000085
:10EAB000B0370020F7B5FF21A7311446095C462284
:10EAC00051430F18384605F001F9060033D01A4AB1
:10EAD000906806282FD22146144650225043174DE5
:10EAE0004622401941803946001DFCF725FB01985C
:10EAF0000027002804D0A068502148432F5404E088
:10EB0000A0680221502250432954A068502141435B
:10EB10004919401CCE64A060E16888420BD10026F0
:10EB200005E0502070434019C16C8847761CE068AE
:10EB30008642F6D3A760FEBD2C3700207846002021
:10EB400030B50D46FF21A7311446095C46225143DA
:10EB500093B0081805F0BAF8030005D06846448061
:10EB6000012101700195984713B030BD10B5002800
:10EB700002D00248FCF704FF10BD000013EC0100B6
:10EB800070B50C46050015D0002C13D001F0A7FB82
:10EB9000002811D0204601F0A2FB00280CD0FCF781
:10EBA000EBFE024629462046FCF7C2FE002805D0AF
:10EBB000002070BD0E2070BD102070BD032070BD00
:10EBC00070B514460D4606001DD0002D1BD0002C3C
:10EBD00019D001F084FB002817D0284601F07FFBF4
:10EBE000002812D0204601F07AFB00280DD0FCF757
:10EBF000C3FE0346224631462846FCF7C7FE0028DE
:10EC000005D0002070BD0E2070BD102070BD032007
:10EC100070BD10B502F09AF9002801D0002010BD97
:10EC2000012010BD10B50E4900230A784C78A2428D
:10EC300012D0521CD2B20A70022A00D10B700A788C
:10EC4000074B920018339A58026088681018000227
:10EC5000000A8860012010BD0360002010BD000084
:10EC6000C43700203EB5094D38CD0093029501947C
:10EC70006B46588099809A71054900220978FEF701
:10EC800089FD684600F08EF83EBD0000C0540200C9
:10EC90008437002010B5047800222300FDF7B2FC71
:10ECA000070605070D1D262C06000A7010BD01225F
:10ECB0000A7002898A81828814E002220A7002891D
:10ECC0008A818288CA81C2688A60007C062802D054
:10ECD0000020087410BD0120FBE703220A70C288DF
:10ECE0008A810289CA81C068886010BD04230B70C4
:10ECF000C0888881CA8110BD0520087010BD000041
:10ED000070B5064D06460024A0002958002901D000
:10ED100030468847641C082CF6D370BD684E00202E
:10ED20000EB5002910D011290ED0002200920292B7
:10ED30006A46508001910D2907D0042907D0092087
:10ED40001070104600F03CF80EBD0B20F8E70A20CA
:10ED5000F6E7000001490968084700004437002031
:10ED600070B5054D06460024A00029583046884756
:10ED7000641C022CF8D370BD58540200F8B5074645
:10ED80000024064E064D04E0A0003158384688475E
:10ED9000641CE8788442F7DBF8BD0000384C0020A2
:10EDA0007437002070B5054D06460024A000295890
:10EDB00030468847641C022CF8D370BD885402008A
:10EDC0000149096808470000CC5402007047000060
:10EDD0007FB50446406800280BD0002003902078BF
:10EDE0000026414D0300FDF70DFC066D0606304E72
:10EDF0007B6D0120F2E7A08900F0DCF9002804D146
:10EE0000E08904F029FF00285CD0A08900F0CCF94B
:10EE1000014668464180E08904F018FF01466846D3
:10EE2000017120780128606807D0002809D00420EB
:10EE3000694608706068039020E00028F8D003203D
:10EE4000F6E70120F4E708463AE0A08900F0B2F9BD
:10EE5000002804D1E08904F0FFFE002832D0A08908
:10EE600000F0A2F969464880E08904F0EFFE6946A7
:10EE700008716068002804D005200870A06802901E
:10EE8000E1E70220F9E7A08900F094F9002819D001
:10EE9000E089002816D1A08900F086F969464880EB
:10EEA000E08904F0D3FEFF206946087160680028FD
:10EEB0000FD0072008706E70AE7003F061FF6846D7
:10EEC00003F01CFE6878002802D06E7003F058FF33
:10EED0007FBD062168460170408803F0DFFFEAE746
:10EEE000082069460870AEE76037002000B5104979
:10EEF00087B00978890702D4022007B000BD0D4908
:10EF0000884201D10420F8E7052269460A700122EF
:10EF10000A71C88000221146684603F04DFA0028A5
:10EF200003D004F0A1FD0020E7E70820E5E700009A
:10EF3000F0370020FFFF000000B50F4887B00078D1
:10EF4000800702D4022007B000BD06206946087081
:10EF500000221146684603F02FFA002809D007481E
:10EF60000178002901D00121017304F07DFD00200A
:10EF7000E9E70820E7E70000F0370020684F0020AD
:10EF800000B58DB014216846FCF7FDF81E480078E6
:10EF9000810703D56846FFF7B3FE32E0C00730D1E2
:10EFA000012000F05BF900F0D3F903F097FA002894
:10EFB0000ED006280FD001216A4611750300FDF717
:10EFC00021FB0C19111911191819181913161319F5
:10EFD0000B200DB000BD022000F040F9012000F030
:10EFE00023F9D7E7002000E00320107602E002209A
:10EFF000FBE711760022114605A803F0DDF904F0C5
:10F0000033FD0020E5E70000F037002038B50400AC
:10F0100014D0694604F08EFD002813D0684600889D
:10F020000101094809188889002809D0A27A002A14
:10F0300006D0401E88810020A07238BD052038BD52
:10F04000062038BD0A2038BD484F00201FB501A951
:10F05000684604F02DFD04B010BD07B513460A46FE
:10F060006946002004F024FD0EBD07B513460A468C
:10F070000021684604F01CFD0EBD002805D00029C3
:10F0800003D000680860002070470520704700002A
:10F0900038B50D46040017D0002D15D0694604F090
:10F0A00049FD002812D068460088616802010848BE
:10F0B00012189089401C9081296060680C3068604B
:10F0C0000120A072002038BD052038BD0A2038BDBF
:10F0D000484F002010B5002804D00323002206F07A
:10F0E0004DF810BD052010BD10B50223002206F01A
:10F0F00045F810BD10B5002A03D0022306F03EF8F3
:10F1000010BD052010BD000010B5064A5178082931
:10F1100006D08B00044C491CE0505170002010BDFB
:10F120000C2010BDF0370020684E002038B5044692
:10F130000A480D460078800701D4022038BD002C13
:10F140000AD06946284606F025F90028F6D1694616
:10F1500009882180658038BD052038BDF037002042
:10F1600010B504460E480078800701D4022010BD77
:10F17000002C10D0218802290FD80A4A08018018D3
:10F1800042896088121A032A07D406F0F9F8002091
:10F190002080608010BD052010BD042010BD00003F
:10F1A000F0370020484F002003218903401A80B225
:10F1B0007047000003218903401A0349884201D89F
:10F1C0000120704700207047FE3F000010B50C463C
:10F1D00086B0014609310491007A6946C0088882E8
:10F1E00001AA04A90220FDF785FD002806D001AA86
:10F1F00004A90320FDF77EFD002813D16946098983
:10F20000002049080CE0019A4300D3185A781B7873
:10F2100012021A43A24202D1012006B010BD401CC6
:10F220008142F0D80020F8E702490A7882430A7048
:10F2300070470000F037002010B504460078182809
:10F2400002D1FEF771FA207010BD10B504460078A7
:10F25000182802D1FEF768FA207010BD02490A781A
:10F2600002430A7070470000F037002070B5064670
:10F2700000200546042906D0112902D0002903D018
:10F2800070BD012500E001200E4C002A02460FD07F
:10F2900061793046FEF77EFA2A4621793046FEF73C
:10F2A00079FA002261783046FEF774FA002204E011
:10F2B00061783046FEF76EFA2A4621783046FEF72E
:10F2C00069FA70BD88370020F8B506461C481F460D
:10F2D000007815460C46C0070AD03046FFF754F9AF
:10F2E000002807D0002C07D0A00507D00620F8BDC5
:10F2F0000120F8BD0220F8BD0320F8BD3068A0420F
:10F3000004D8A80271680019884201D90520F8BD07
:10F31000002D10D0684604F0F9FA00280DD00098AE
:10F320000221C0C00170A101090C8180058104F097
:10F33000A9FB0020F8BD0420F8BD0720F8BD00009F
:10F340000838002010B5084604F0FCFA10BD000093
:10F35000F0B52648264C001B03092648194640698B
:10F36000421C03D10120000740698002224A127822
:10F370009646D2070CD00020F0BD1D4C15012C196B
:10F380002568002D03D06468002C00D0491E521C53
:10F390009A42F2D3002420E0E2B2002594462A46A5
:10F3A0000FE0134E1701BE193768002F02D077689F
:10F3B000002F05D1767BAE4202D93546D6B2B4468F
:10F3C000521C9A42EDD362461501094AAA185060B0
:10F3D000157BAD02401B641C10608C42DCD30648D8
:10F3E0007146012211430170C5E700004438002036
:10F3F000343800200010001008380020002804D005
:10F400000349496E016000207047032070470000E7
:10F41000784F0020F8B507461E481E46007815466E
:10F420000C46C0070ED03846FFF7AEF800280BD0C8
:10F43000002D0BD0002C09D028462043800707D090
:10F440000620F8BD0120F8BD0220F8BD0320F8BD5C
:10F450003868A04204D8B10078680919884201D2FE
:10F460000520F8BD002E11D0684604F04FFA0028A0
:10F470000ED0009806990760416001210172C560B5
:10F480000461868204F0FEFA0020F8BD0420F8BD75
:10F490000720F8BD0838002070B5174B0446186ED9
:10F4A000182148431549C0180A78950715D5022C2C
:10F4B00002D0032C1CD102E002F0A6FE18E04A782C
:10F4C000521CD2B24A70032A12D900224A70082173
:10F4D00004F018FE04F004FA0AE0500708D5FB20F7
:10F4E00002400A70586E002802D0022002430A70BF
:10F4F00004F084FA70BD0000784F00200838002026
:10F5000070B5002801D0012070BD164C0025207B6D
:10F51000002801D0257301E000F09CF8207803005A
:10F52000FDF770F8081E05080B0E1E111A1E00F0DC
:10F530001BF870BD00F07EF870BD00F061F870BD82
:10F5400000F038F870BD6088064900012039401885
:10F55000406802F0A3FF70BD656002F0ADFF70BDB2
:10F560000F2070BD684F002070B5104900208A1C24
:10F570000D460346203D0C18A67A002E08D0A37233
:10F5800004016419A689002E02D1A47B012C08D0A5
:10F59000401C80B20228EED30B704B8004484B60B5
:10F5A00070BD108000F046F870BD0000684F00206C
:10F5B0001D1D000010B50F4C608801012046203849
:10F5C0000818818900290BD0052020700A480221E3
:10F5D00081800168002301220848FFF775FE10BDF5
:10F5E0004168002301220548FFF76EFE04212170C7
:10F5F00010BD0000684F0020003800203438002083
:10F6000038B50A4908480B68898842688900591842
:10F610005388032404700020DB1C00909BB2044834
:10F62000FFF7F8FE38BD0000684F002000380020CA
:10F630003438002010B506494888091D04F0CAFA7C
:10F64000002802D0FFF7DCFF10BDFFF7B3FF10BDAD
:10F65000684F0020F0B51D481D4907780246012576
:10F6600002268C88203A3B00FCF7CCFF08051717D0
:10F670001A212C2C16170189491C01810021418077
:10F6800001730B01D35C002B08D000234418491CE4
:10F6900089B2A3720229F4D30570F0BD0123F5E706
:10F6A00042685288D21CA2188A800670F0BD458834
:10F6B0000B682D01AA1855680D60536014818E8067
:10F6C000062100E007210170F0BD0000684F002016
:10F6D00000380020F0B504460088384D8DB0502821
:10F6E0001DD0522802D0542826D103E0A08801F072
:10F6F00049F821E0062069460870A08800F0BEFCA9
:10F7000069464880A2888A8000F054F9A0880022C7
:10F71000E978FEF73FF86846FFF71CFB0CE0207B1A
:10F72000012809D1A07A012806D1208924498842DC
:10F7300002D1A08801F062F8A878FEF70DF8002841
:10F7400019D008A8FDF732FF142208A903A8FBF777
:10F75000F3FC002403AE0BE060008719B888A97899
:10F76000FEF706F8002802D0B88801F00BF8641CF8
:10F770000398A042F0D86878FDF7EEFF002819D072
:10F7800008A8FDF713FF142208A903A8FBF7D4FC6F
:10F79000002403AE0BE060008719B8886978FDF794
:10F7A000E7FF002802D0B88801F028F8641C03980D
:10F7B000A042F0D804F0FAFC0DB0F0BD3C370020B8
:10F7C000022900003EB504464088694648802078FA
:10F7D000002814D001281DD002280FD1207900283C
:10F7E0000CD0608800F07EFB0E49884206D00E499E
:10F7F0000122C978FDF7CEFF04F0D8FC3EBD002001
:10F8000008700846FFF7A6FA608800F06BFB00F06E
:10F81000B9FF3EBD012168460170A1888180FFF7D4
:10F8200099FA3EBDFFFF00003C37002010B50446AA
:10F83000007801280DD1608800F0A4FF608800F0F6
:10F840007DF9002805D0034960880122C978FDF7B9
:10F85000A1FF10BD3C37002010B5104C00202070D7
:10F86000FDF762FF6070FDF75FFFA070FDF75CFFC2
:10F87000E070FDF759FF2071617818290BD0A1784D
:10F88000182908D0E178182905D0182803D00120BC
:10F890002070002010BD032010BD00003C37002068
:10F8A000F0B585B000F09EF86846FDF77FFE0024B5
:10F8B0006D460C4F0EE060004619B08800F0DEFB8C
:10F8C000B84205D10849B0880122C978FDF762FF26
:10F8D000641CA4B20098A042EDD804F067FC05B007
:10F8E000F0BD0000FFFF00003C37002010B501789C
:10F8F000072902D1408800F081FF10BD10B50446F1
:10F900000A4841782046FDF733FF00280CD008480C
:10F9100000210C224A4312185288A24201D1C8B2D7
:10F9200010BD491C0829F4D3FF2010BD5437002016
:10F930005848002070B5094D094E00240C20604342
:10F94000401940887178FDF713FF002804D0641C2B
:10F95000082CF3D3FF2070BDE0B270BD58480020E2
:10F9600054370020F8B50746104E0125BD403068D9
:10F97000FDF768FB00280DD10D4C2069284207D106
:10F98000384601F0A3FA0028E06804D0284303E0D9
:10F99000A8432061F8BDA843E06020690022284305
:10F9A0002061A1683068FDF709FBF8BDD054020062
:10F9B000B03700201CB5054A9168D26801920091C9
:10F9C0000022694602F062FF1CBD000044540200A0
:10F9D00003480021C9438180012101700020704744
:10F9E0004837002010B5044802F07CFE03498880A7
:10F9F00004F008FC10BD0000FFFF000048370020A5
:10FA0000F1B582B0029800F039FB002416490325B5
:10FA100001272646884209D06A46082102F00CFFD9
:10FA2000002803D1019886880568841D2B4632463C
:10FA300021460298A9DF042804D0082804D00B2806
:10FA400007D002E0112000E00020002F00D10B20A1
:10FA5000FEBD0027A80701D50125E7E73443F6D00E
:10FA6000002426460325E1E7FFFF0000F1B582B040
:10FA7000029800F003FB07461B48874201D11B4850
:10FA8000FEBD01252A466D1C0026ADB26B4608213D
:10FA9000384602F001FF040002D0072C21D021E0FB
:10FAA000019903230B600A1D891D0298AADF040037
:10FAB00004D00C2C08D0052C08D008E008213846CA
:10FAC00002F084FF04460DE0012600E00024082136
:10FAD000384602F065FF002800D00324002ED1D163
:10FAE00000E00C242046FEBDFFFF000002300000B5
:10FAF0001FB504460078012813D12079012810D1C0
:10FB0000608802AA012102F097FE002809D1022193
:10FB100068460170618841800121017105490968C9
:10FB200088470448044908388088884201D004F096
:10FB300069FB1FBD50370020FFFF00001CB500F01F
:10FB40009DFA6A46012102F077FE002801D00020CC
:10FB50001CBD019800781CBDF8B5074E074C084D38
:10FB60000746324661883846A7DFA84203D160883D
:10FB7000401C6080F5E7F8BDFFFF0000483700201B
:10FB8000033000008188054A914204D00088002893
:10FB900001D001207047002070470000FFFF0000E7
:10FBA000F0B5002406460D46601C010795B0090F0C
:10FBB00008A810310C940174297B4174817CF927C9
:10FBC0003940891C81741C2105A8FBF7DCFA6846C2
:10FBD000017D10200143684601750CA806940A9027
:10FBE0000894099401220B9408A882761749684664
:10FBF00001870D94697B08A80175A97B4175817DFA
:10FC0000F7203940891C0140EF200140114308A82A
:10FC1000817514216846FBF7B6FA0EA800900DA86E
:10FC200001900FAA0021304600F012F80146684604
:10FC300001811421448181810FA804903346F0880A
:10FC400008336A4605A9A2DF15B0F0BD372A0000C7
:10FC5000F7B542790025002A00D004252222135C42
:10FC60000222002B00D01543CBB2FF2907D9012275
:10FC70001543029A090A53709170032602E0029913
:10FC800002264B7004464034A189002901D010217E
:10FC90000D43002716E0B11C142909D9A189C91BFD
:10FCA0004A007900091824302431FBF745FA0CE0AA
:10FCB000029B7A0012189B19928C1A70120A5A70C1
:10FCC000CEB27F1CA189B942E5DCA089C01BA0810E
:10FCD000029805703046FEBD70B5064608780C46A1
:10FCE000012807D0022804D18A8817A1032001F037
:10FCF00009FD70BD1D4D1E4968888842F9D1628892
:10FD00006A801CA1032001F0FDFC221D6988304699
:10FD1000FDF724FF002801D0FDF7F4F823A103200C
:10FD200001F0CCFC0021688803F018FA082803D001
:10FD3000002801D0FDF7E6F83046FDF71CFF00284B
:10FD4000D7D0FDF7DFF870BD4150503A494E464FCD
:10FD50003A43454E5452414C3A20486561727420F2
:10FD600052617465203D2025640D0A0098360020FC
:10FD7000FFFF00004150503A494E464F3A43454E2E
:10FD80005452414C3A2048525320646973636F7651
:10FD900065726564206F6E20636F6E6E5F68616E62
:10FDA000646C6520307825780D0A00004150503A87
:10FDB000494E464F3A43454E5452414C3A20696EA3
:10FDC000697469617465207365637572697479001B
:10FDD0003EB5044600780D46022815D10322611C69
:10FDE0006846FBF7A9F90322211D02A8FBF7A4F935
:10FDF00001AA02A92846FCF7E1FF032201A96846EF
:10FE0000FBF7D3F9002801D000203EBD01203EBD04
:10FE100010B50C46FFF772FDFF280AD00C214843AD
:10FE20000549072241182046091DFBF785F90020E6
:10FE300010BD052010BD00005848002070B5018895
:10FE400090B0102949D1011D2C2202A8FBF774F9AA
:10FE50006846234E007B344602AD03282AD002F0C8
:10FE6000BDFE6846007B00280ED001280CD0022879
:10FE700020D118E00E99281D1131FCF72CFE002826
:10FE800002D06846048815E00DAA6946072002F0F2
:10FE90007BFE0028EED10DE00E99281D491CFFF7CE
:10FEA00097FF0028EDD10DAA6946072002F06CFEED
:10FEB0000028F1D168460089291D00F093FEB44264
:10FEC0000BD068460089214600F086F86846018913
:10FED000418001210170FEF743FF10B070BD0000AA
:10FEE000FFFF0000084A00210C234B43D35A8342F2
:10FEF00004D10C204143881840887047491C0829C8
:10FF0000F2D302487047000058480020FFFF00006D
:10FF100010B50E4C182060700D4A0E4900200C23BD
:10FF200043435B18401C5A800828F8D3FDF7FCFBBC
:10FF30006070182804D00548C01C71DF002801D06B
:10FF4000032010BD01202070002010BD5437002078
:10FF5000FFFF00005848002070B504460D46401CC5
:10FF600000F0B2F9002810D01022691C601CFBF7C9
:10FF70001CF900280AD000262946204611311130EC
:10FF8000FCF7A9FD01463046084370BD0126F3E7A2
:10FF90000188002903D142189278002A01D001205B
:10FFA0007047491C0829F6D30020704710B50C464D
:10FFB0000346FFF7EDFF00280BD018882188884200
:10FFC00006D10822A11C981CFBF7EFF8002801D0ED
:10FFD000002010BD012010BD10B502F0BBFF10BD08
:10FFE00010B50446007888B0002826D1207907286B
:10FFF00023D1608801AA072102F01EFC00281CD131
:020000040002F8
:1000000002F0ECFD1BE0694660880988884216D042
:1000100004990298FFF7A0FF002810D06088FFF72E
:1000200061FF01466846C182002101756188018334
:100030000188418305A8FEF793FE08B010BD03AA0E
:100040006946072002F0A0FD0028DCD1F5E700009A
:1000500070B50446FFF746FF0546204602F0F1FB67
:10006000054904468D4204D0002C02D1284602F0F6
:1000700071FF204670BD0000FFFF000010B5FFF7C4
:100080003DFCFF2804D00C2148430249085A10BD0A
:10009000014810BD58480020FFFF00003EB504464F
:1000A00002F09CFD10E0019920464631FFF77EFFEB
:1000B000002806D1019920462A31FFF777FF002852
:1000C00002D0684600893EBD6A4602A9072002F0B8
:1000D0005BFD0028E7D101483EBD0000FFFF0000A6
:1000E000F8B50F46002804D00120FFF79DF8012045
:1000F000F8BD397900290AD00026254D01290BD0F9
:10010000244C022920681FD003293BD125E002F0AE
:10011000D3F90121397133E000200101695C022922
:100120000BD0401C80B20228F7D30220FFF796F8CC
:100130000120FFF779F81848F8BD040160194068FC
:1001400002F0ACF92E551BE00146002301221348B2
:10015000FFF7BAF80221A18011E002F09FF90C49E3
:100160002368203149880A01094951184D682560E2
:100170004B60A3880B810221A18005498E543E71FA
:100180000028D9D00120FFF74FF80E20F8BD00005D
:10019000484F0020003800201D1D0000343800208A
:1001A000F8B51E4C2078002836D0E06800260028DC
:1001B0000CD00025607800282ED1684652DF052833
:1001C00006D0002806D0FCF79DFE0BE00125F1E7E4
:1001D000012607E0009800F0A5FD2169002901D063
:1001E00000988847002D13D16078002814D16088CA
:1001F00069460880A06861DF052804D0002804D083
:10020000FCF780FE04E0012502E0E168A068884771
:10021000002ECFD0002DE5D0F8BD00001C38002006
:10022000418805480288914204D34088814201D820
:1002300001207047002070471C37002030B5098925
:10024000002A05D0D088491C814213D1002030BD3E
:100250000246FF32A132947946256C432418248942
:10026000A142F3D0491C19809179462251430818C4
:10027000008902E01980D088401E5880012030BDDE
:100280001048018CC9B2012917D1818C090714D1FA
:10029000018D09060A0F03D1828D1206120F0ED0AE
:1002A000090F012903D1828D1206120F07D00329ED
:1002B00003D1808D0006000F01D00020704701207F
:1002C00070470000C00F00F00021425C002A01D0FE
:1002D00001207047491C1029F7D300207047800780
:1002E00001D00020704701207047800701D0002016
:1002F000704701207047000010B50448017AC90713
:1003000002D00078FDF744FF10BD0000C836002081
:10031000FFB5244D81B0287A1F460E46084304D00D
:10032000039A002E04D0002104E0052005B0F0BDA2
:100330001C491031019804F0EDF9044601460022F1
:100340000198FEF793FF002F03D021460198FEF796
:10035000E7FC0D2C0DD006DC002C0AD0042C16D0A6
:10036000082C05D105E0112C05D00F48C44200D05F
:1003700003242046DAE73246E9780198FDF70AFAC5
:10038000A978039A0198FDF705FA0024F1E73246AF
:10039000E9780198FDF7FEF9A978039A0198FDF72D
:1003A000F9F9E6E788370020FECFFFFFFEB51746D4
:1003B0000C00064604D02078C00704D0012003E0DA
:1003C00000217EDFFEBD0220694608713046FFF73E
:1003D00055FE17490546884208D001A800902B46D3
:1003E0003A462146304600F025F806E020782146BE
:1003F000C007304603D000F081F804460BE07EDFF2
:10040000044600200090002C08D000220123294639
:10041000304603F043FE002C02D006E00122F5E74F
:1004200068460179304603F05FFE2046FEBD0000BD
:10043000FFFF0000FFB585B000252E4601AA072169
:100440000E9F089802F0F8F9040008D1029D44209C
:10045000405D1835C607F60F01D0029D3435079868
:10046000204312D1002D10D0002E05D12846123085
:10047000FFF78EFD002808D029462A46123105983C
:1004800085DF04460020387023E0002C01D0052CC5
:100490001FD106980078C0070DD003AB01220721B9
:1004A000089802F0F9F904000AD10721089802F02F
:1004B000F1FA040004D1069905987EDF040008D003
:1004C0000721089802F06CFA002802D0052800D015
:1004D0000324002000903878002801D0012300E098
:1004E0000023002C07D000220899059803F0D6FDC0
:1004F000204609B0F0BD0122F6E70000FEB50F4628
:10050000064602F08DF905461848854220D001AB19
:1005100001220721284602F0BFF904000AD1072171
:10052000284602F0B7FA040004D1394630467EDF8F
:10053000040008D00721284602F032FA002802D031
:10054000052800D0032401200090002C0BD002E0ED
:10055000032400200090002201232946304603F0A6
:100560009DFD2046FEBD0122F6E70000FFFF0000D2
:10057000F7B5114D0F46164629780098FDF7F8F8A3
:10058000002812D00098FFF779FD04460B488442FA
:100590000BD069780098FDF7EBF8002806D03346B9
:1005A0003A462146009802F011F8FEBD324639461F
:1005B0000098FEF757FBFEBD84370020FFFF0000C8
:1005C000F1B586B00698FDF7C7F8002821D0684637
:1005D000FCF7ECFF00246E4618E060008519A8883F
:1005E0000699FDF7C5F800280FD00B4FA888B978F9
:1005F000FDF7BEF80590A888F978FDF7B9F801462F
:10060000A8880123059AFFF783FE641C0098A04286
:10061000E3D807B0F0BD000088370020F0B5284CC3
:100620002146103948688B68227886469C46CF78E8
:10063000667836E0182353436168521CC918A378C2
:10064000D2B2934200D100220B78022B02D0032BAE
:1006500027D123E003464D68194603E0A94204D0A0
:100660000B46C96900291CD0F8E7002919D08B4234
:1006700008D1C069002805D1124F0125BD600025B1
:10068000AC4601270D68C969D961002909D00B68FA
:100690005B190B6005E00174C06900E000210028CF
:1006A000F9D19642C6D10649624610398A6048603F
:1006B000CF70704501D00120F0BD0020F0BD0000DA
:1006C000D437002000100140F8B52C4E0446706865
:1006D0000025009041E0002C02D02046E46920E093
:1006E000264818231030017842684B43491CC9B290
:1006F000D21801708378994200D105701178506842
:1007000001292CD1017C002929D191684160D1684F
:1007100081601169C16051698161F178002900D05F
:1007200045604368B268164F991A0902090AB9422E
:1007300002D28268891806E0D11A09028268090A81
:100740008A4202D9511A016000E00560456001212A
:1007500085600174C56104F0F9F9002CBBD107482C
:100760001030017840788142BAD171680098814296
:1007700001D00120F8BD0020F8BD0000C4370020E2
:10078000FFFF7F00FEB504461948002684422DD0A5
:100790002046FFF735F9050012D00B2D14D0112D8E
:1007A00010D01448C5421BD009216846017020466C
:1007B000FFF764FC014668464180848002950DE0A5
:1007C000022102E001260BE0032168460170204669
:1007D000FFF754FC0146684641808480FEF7BAFA70
:1007E0000548324681782046FCF7D4FFFEBD000064
:1007F000FFFF0000FECFFFFF3C370020FEB50446A0
:100800000026FFF733F905460C281AD004DC002D2A
:1008100013D0042D05D127E0112D10D01348C54267
:100820001BD00921684601702046FFF727FC0146CE
:1008300068464180848002950DE0012102E0012696
:100840000BE007216846017084802046FFF716FC04
:10085000014668464180FEF77DFA054832464178F8
:100860002046FCF797FFFEBD0821EBE7FECFFFFF18
:100870003C370020F8B5054600780C46002620429B
:100880000FD10020694608706846FCF7EFFB287816
:10089000204202D120432870012668460078FCF7E8
:1008A00003FC3046F8BD000098B0002001F01EF8AF
:1008B000002801D0FCF726FB6848674901600D312C
:1008C00041601D3981600023654A03211846FCF709
:1008D0003BFB002801D0FCF715FB624A624903206C
:1008E000FDF706FC002801D0FCF70CFB01A9002055
:1008F000FDF7F2FA002801D0FCF704FB6846007906
:1009000002287DD0002069460870002803D057A136
:10091000032000F0D3FEFDF763FA6846007802F08A
:100920002DFB5948FDF722F8002801D0FCF7EAFA20
:10093000564800904A4869464830FDF727F9002894
:1009400001D0FCF7DFFA4648514C524A6946543010
:100950000094FCF74BFF002801D0FCF7D3FA4D4A76
:100960003F48103A694660300094FCF73FFF00288A
:1009700001D0FCF7C7FA48A1032000F09FFE112028
:10098000694608720D224FA102A87CDF002801D021
:10099000FCF7B8FA00240094062668460194068005
:1009A00018214180FF2184809131C1807ADF0028A5
:1009B00001D0FCF7A7FA1C216846FAF7E4FB0520F2
:1009C000C00301900F2000040290009403216846A8
:1009D0000173091FC181012505743E4806900594E5
:1009E0006846FCF771FD002801D0FCF78BFA03F094
:1009F000BFFC382101A8FAF7C6FB0221684600E0D7
:100A000028E001718571C671818213482021083860
:100A100006900FA8FAF7B7FB08A8C577FF202D307E
:100A20001390B420009414902B4B0FAA002101A81E
:100A3000FCF7D4FB002801D0FCF764FAFCF772F94C
:100A400000F08AFD0028FBD148DF0028F8D0FCF731
:100A500059FAF5E7012056E7B03600205043002050
:100A60008C380020F9DF0100CD0C00004150503AD5
:100A7000494E464F3A426F6E6473206572617365EA
:100A800064210D0A00000000F9E80100D9FC010012
:100A900031E801007D1800004150503A494E464F60
:100AA0003A4C452053656375726520436F6E6E65E1
:100AB0006374696F6E73204578616D706C650D0AA3
:100AC000000000004E6F726469634C4553434170EF
